{
  "contractName": "Logs",
  "abi": [
    {
      "inputs": [
        {
          "internalType": "string",
          "name": "a",
          "type": "string"
        },
        {
          "internalType": "bytes32",
          "name": "b",
          "type": "bytes32"
        }
      ],
      "name": "saveLog",
      "outputs": [
        {
          "internalType": "bool",
          "name": "",
          "type": "bool"
        }
      ],
      "stateMutability": "nonpayable",
      "type": "function"
    },
    {
      "inputs": [
        {
          "internalType": "bytes32",
          "name": "stoneid",
          "type": "bytes32"
        }
      ],
      "name": "getLog",
      "outputs": [
        {
          "internalType": "string",
          "name": "",
          "type": "string"
        }
      ],
      "stateMutability": "view",
      "type": "function",
      "constant": true
    }
  ],
  "bytecode": "0x608060405234801561001057600080fd5b506105ab806100206000396000f3fe608060405234801561001057600080fd5b50600436106100365760003560e01c80635cac75b41461003b5780637010416e1461006b575b600080fd5b610055600480360381019061005091906102cd565b61009b565b6040516100629190610371565b60405180910390f35b610085600480360381019061008091906102a0565b6100d1565b604051610092919061038c565b60405180910390f35b60008260008084815260200190815260200160002060000190805190602001906100c6929190610178565b506001905092915050565b606060008083815260200190815260200160002060000180546100f390610478565b80601f016020809104026020016040519081016040528092919081815260200182805461011f90610478565b801561016c5780601f106101415761010080835404028352916020019161016c565b820191906000526020600020905b81548152906001019060200180831161014f57829003601f168201915b50505050509050919050565b82805461018490610478565b90600052602060002090601f0160209004810192826101a657600085556101ed565b82601f106101bf57805160ff19168380011785556101ed565b828001600101855582156101ed579182015b828111156101ec5782518255916020019190600101906101d1565b5b5090506101fa91906101fe565b5090565b5b808211156102175760008160009055506001016101ff565b5090565b600061022e610229846103d3565b6103ae565b90508281526020810184848401111561024a5761024961053e565b5b610255848285610436565b509392505050565b60008135905061026c8161055e565b92915050565b600082601f83011261028757610286610539565b5b813561029784826020860161021b565b91505092915050565b6000602082840312156102b6576102b5610548565b5b60006102c48482850161025d565b91505092915050565b600080604083850312156102e4576102e3610548565b5b600083013567ffffffffffffffff81111561030257610301610543565b5b61030e85828601610272565b925050602061031f8582860161025d565b9150509250929050565b61033281610420565b82525050565b600061034382610404565b61034d818561040f565b935061035d818560208601610445565b6103668161054d565b840191505092915050565b60006020820190506103866000830184610329565b92915050565b600060208201905081810360008301526103a68184610338565b905092915050565b60006103b86103c9565b90506103c482826104aa565b919050565b6000604051905090565b600067ffffffffffffffff8211156103ee576103ed61050a565b5b6103f78261054d565b9050602081019050919050565b600081519050919050565b600082825260208201905092915050565b60008115159050919050565b6000819050919050565b82818337600083830152505050565b60005b83811015610463578082015181840152602081019050610448565b83811115610472576000848401525b50505050565b6000600282049050600182168061049057607f821691505b602082108114156104a4576104a36104db565b5b50919050565b6104b38261054d565b810181811067ffffffffffffffff821117156104d2576104d161050a565b5b80604052505050565b7f4e487b7100000000000000000000000000000000000000000000000000000000600052602260045260246000fd5b7f4e487b7100000000000000000000000000000000000000000000000000000000600052604160045260246000fd5b600080fd5b600080fd5b600080fd5b600080fd5b6000601f19601f8301169050919050565b6105678161042c565b811461057257600080fd5b5056fea26469706673582212208dd39d0365c376f4ed9e3412aedc5c624efc37821c0948a0340dbc8c580f48ac64736f6c63430008060033",
  "immutableReferences": {},
  "source": "// SPDX-License-Identifier: GPL-3.0\npragma solidity >=0.4.16 <0.9.0;\n// pragma solidity ^0.4.20;\n\n/// @title Logs contract of BOL creation, access, dispatch, fund transfer\n/// @author Mithun\n/// @dev Contract under development\n\ncontract Logs {\n\n    struct log{\n        string bolHash;\n    }\n    mapping(bytes32 => log) logHashMap;\n\n\n\n    function saveLog(string memory a,bytes32 b) public returns(bool){\n        logHashMap[b].bolHash = a;\n        return true;\n    }\n\n        function getLog(bytes32 stoneid) public view returns(string memory) {\n        return (logHashMap[stoneid].bolHash);\n    }\n\n}",
  "sourcePath": "/home/kottackal/Desktop/Data Analytics Jisa/Analytics App-LEI/contracts/Logs.sol",
  "compiler": {
    "name": "solc",
    "version": "0.8.6+commit.11564f7e.Emscripten.clang"
  },
  "schemaVersion": "3.4.3",
  "updatedAt": "2023-08-01T13:53:07.113Z",
  "networkType": "ethereum",
  "devdoc": {
    "author": "Mithun",
    "details": "Contract under development",
    "kind": "dev",
    "methods": {},
    "title": "Logs contract of BOL creation, access, dispatch, fund transfer",
    "version": 1
  },
  "userdoc": {
    "kind": "user",
    "methods": {},
    "version": 1
  }
}