{
  "contractName": "Registration",
  "abi": [
    {
      "anonymous": false,
      "inputs": [
        {
          "indexed": false,
          "internalType": "bytes32",
          "name": "bank",
          "type": "bytes32"
        }
      ],
      "name": "LogBank",
      "type": "event"
    },
    {
      "anonymous": false,
      "inputs": [
        {
          "indexed": false,
          "internalType": "uint256[]",
          "name": "t",
          "type": "uint256[]"
        },
        {
          "indexed": false,
          "internalType": "address",
          "name": "ad",
          "type": "address"
        }
      ],
      "name": "Tok",
      "type": "event"
    },
    {
      "inputs": [],
      "name": "UType",
      "outputs": [
        {
          "internalType": "string",
          "name": "",
          "type": "string"
        }
      ],
      "stateMutability": "view",
      "type": "function",
      "constant": true
    },
    {
      "inputs": [
        {
          "internalType": "address",
          "name": "metamaskAdd",
          "type": "address"
        },
        {
          "internalType": "string",
          "name": "hash",
          "type": "string"
        },
        {
          "internalType": "string",
          "name": "uType",
          "type": "string"
        },
        {
          "internalType": "bytes32",
          "name": "cus",
          "type": "bytes32"
        }
      ],
      "name": "saveUserDetailsToBC",
      "outputs": [
        {
          "internalType": "bool",
          "name": "",
          "type": "bool"
        }
      ],
      "stateMutability": "nonpayable",
      "type": "function"
    },
    {
      "inputs": [],
      "name": "gettestAd",
      "outputs": [
        {
          "internalType": "address[]",
          "name": "",
          "type": "address[]"
        }
      ],
      "stateMutability": "view",
      "type": "function",
      "constant": true
    },
    {
      "inputs": [
        {
          "internalType": "address",
          "name": "metamaskAdd",
          "type": "address"
        },
        {
          "internalType": "string",
          "name": "hash",
          "type": "string"
        },
        {
          "internalType": "string",
          "name": "uType",
          "type": "string"
        },
        {
          "internalType": "bytes32",
          "name": "cus",
          "type": "bytes32"
        },
        {
          "internalType": "address",
          "name": "bankAddress",
          "type": "address"
        }
      ],
      "name": "saveUserDetailsToBCConsignee",
      "outputs": [
        {
          "internalType": "bool",
          "name": "",
          "type": "bool"
        }
      ],
      "stateMutability": "nonpayable",
      "type": "function"
    },
    {
      "inputs": [
        {
          "internalType": "address",
          "name": "metamaskAdd",
          "type": "address"
        }
      ],
      "name": "getUserHashType",
      "outputs": [
        {
          "internalType": "string",
          "name": "",
          "type": "string"
        },
        {
          "internalType": "string",
          "name": "",
          "type": "string"
        }
      ],
      "stateMutability": "view",
      "type": "function",
      "constant": true
    },
    {
      "inputs": [
        {
          "internalType": "address",
          "name": "metamaskAdd",
          "type": "address"
        }
      ],
      "name": "getUserType",
      "outputs": [
        {
          "internalType": "string",
          "name": "",
          "type": "string"
        }
      ],
      "stateMutability": "view",
      "type": "function",
      "constant": true
    },
    {
      "inputs": [
        {
          "internalType": "bytes32",
          "name": "sellerName",
          "type": "bytes32"
        }
      ],
      "name": "retselleradd",
      "outputs": [
        {
          "internalType": "address",
          "name": "",
          "type": "address"
        }
      ],
      "stateMutability": "view",
      "type": "function",
      "constant": true
    },
    {
      "inputs": [
        {
          "internalType": "bytes32",
          "name": "carrierName",
          "type": "bytes32"
        }
      ],
      "name": "retcarrieradd",
      "outputs": [
        {
          "internalType": "address",
          "name": "",
          "type": "address"
        }
      ],
      "stateMutability": "view",
      "type": "function",
      "constant": true
    },
    {
      "inputs": [
        {
          "internalType": "bytes32",
          "name": "consigneeName",
          "type": "bytes32"
        }
      ],
      "name": "retconsigneeadd",
      "outputs": [
        {
          "internalType": "address",
          "name": "",
          "type": "address"
        }
      ],
      "stateMutability": "view",
      "type": "function",
      "constant": true
    },
    {
      "inputs": [
        {
          "internalType": "bytes32",
          "name": "bankName",
          "type": "bytes32"
        }
      ],
      "name": "retbankadd",
      "outputs": [
        {
          "internalType": "address",
          "name": "",
          "type": "address"
        }
      ],
      "stateMutability": "view",
      "type": "function",
      "constant": true
    },
    {
      "inputs": [],
      "name": "retbanks",
      "outputs": [
        {
          "internalType": "bytes32[]",
          "name": "",
          "type": "bytes32[]"
        }
      ],
      "stateMutability": "view",
      "type": "function",
      "constant": true
    },
    {
      "inputs": [],
      "name": "retCarriers",
      "outputs": [
        {
          "internalType": "bytes32[]",
          "name": "",
          "type": "bytes32[]"
        }
      ],
      "stateMutability": "view",
      "type": "function",
      "constant": true
    },
    {
      "inputs": [
        {
          "internalType": "address",
          "name": "shipperAddress",
          "type": "address"
        },
        {
          "internalType": "uint256[]",
          "name": "token",
          "type": "uint256[]"
        }
      ],
      "name": "saveTokenData",
      "outputs": [
        {
          "internalType": "bool",
          "name": "",
          "type": "bool"
        }
      ],
      "stateMutability": "nonpayable",
      "type": "function"
    },
    {
      "inputs": [
        {
          "internalType": "address",
          "name": "user",
          "type": "address"
        }
      ],
      "name": "popToken",
      "outputs": [
        {
          "internalType": "uint256",
          "name": "",
          "type": "uint256"
        }
      ],
      "stateMutability": "view",
      "type": "function",
      "constant": true
    },
    {
      "inputs": [
        {
          "internalType": "address",
          "name": "shipperAddress",
          "type": "address"
        }
      ],
      "name": "deleteToken",
      "outputs": [
        {
          "internalType": "bool",
          "name": "",
          "type": "bool"
        }
      ],
      "stateMutability": "nonpayable",
      "type": "function"
    },
    {
      "inputs": [
        {
          "internalType": "bytes32",
          "name": "agentName",
          "type": "bytes32"
        },
        {
          "internalType": "address",
          "name": "shippingAgencyAdd",
          "type": "address"
        },
        {
          "internalType": "string",
          "name": "dataHash",
          "type": "string"
        }
      ],
      "name": "updateAgent",
      "outputs": [
        {
          "internalType": "bool",
          "name": "",
          "type": "bool"
        }
      ],
      "stateMutability": "nonpayable",
      "type": "function"
    },
    {
      "inputs": [
        {
          "internalType": "address",
          "name": "shippingAgencyAdd",
          "type": "address"
        }
      ],
      "name": "getAgent",
      "outputs": [
        {
          "internalType": "string",
          "name": "",
          "type": "string"
        }
      ],
      "stateMutability": "view",
      "type": "function",
      "constant": true
    },
    {
      "inputs": [],
      "name": "retforwardingAgentList",
      "outputs": [
        {
          "internalType": "bytes32[]",
          "name": "",
          "type": "bytes32[]"
        }
      ],
      "stateMutability": "view",
      "type": "function",
      "constant": true
    },
    {
      "inputs": [],
      "name": "retAgencies",
      "outputs": [
        {
          "internalType": "bytes32[]",
          "name": "",
          "type": "bytes32[]"
        }
      ],
      "stateMutability": "view",
      "type": "function",
      "constant": true
    },
    {
      "inputs": [
        {
          "internalType": "bytes32",
          "name": "agencyName",
          "type": "bytes32"
        }
      ],
      "name": "retagencyadd",
      "outputs": [
        {
          "internalType": "address",
          "name": "",
          "type": "address"
        }
      ],
      "stateMutability": "view",
      "type": "function",
      "constant": true
    },
    {
      "inputs": [
        {
          "internalType": "address",
          "name": "_user",
          "type": "address"
        },
        {
          "internalType": "string",
          "name": "hash",
          "type": "string"
        }
      ],
      "name": "saveRole",
      "outputs": [
        {
          "internalType": "bool",
          "name": "",
          "type": "bool"
        }
      ],
      "stateMutability": "nonpayable",
      "type": "function"
    },
    {
      "inputs": [
        {
          "internalType": "address",
          "name": "_user",
          "type": "address"
        }
      ],
      "name": "returnRole",
      "outputs": [
        {
          "internalType": "string",
          "name": "",
          "type": "string"
        }
      ],
      "stateMutability": "view",
      "type": "function",
      "constant": true
    }
  ],
  "bytecode": "0x608060405234801561001057600080fd5b50612868806100206000396000f3fe608060405234801561001057600080fd5b50600436106101425760003560e01c806392be012c116100b8578063c40c1c2f1161007c578063c40c1c2f146103dc578063c8916caa1461040c578063c8a485ae1461043c578063caf64c261461046c578063f069f7121461049c578063fb3551ff146104cc57610142565b806392be012c14610321578063b086e2e414610351578063b3761dec1461036f578063b44155d7146103a0578063bd0daf70146103be57610142565b8063616b4c0f1161010a578063616b4c0f146102255780637aa22d811461025557806389ce84ad146102735780638b3f863f146102a35780638c3692c3146102d357806390dc83321461030357610142565b80630a2f41de146101475780632d465e261461016557806339f239df146101955780634cc70a0f146101c557806352079613146101f5575b600080fd5b61014f6104fc565b60405161015c9190612380565b60405180910390f35b61017f600480360381019061017a9190611ec9565b61058a565b60405161018c919061234a565b60405180910390f35b6101af60048036038101906101aa9190611e6d565b610ddd565b6040516101bc919061234a565b60405180910390f35b6101df60048036038101906101da9190611de4565b610e3d565b6040516101ec9190612380565b60405180910390f35b61020f600480360381019061020a9190611f68565b610f0e565b60405161021c919061234a565b60405180910390f35b61023f600480360381019061023a919061201b565b611060565b60405161024c91906122bb565b60405180910390f35b61025d6110a0565b60405161026a91906122f8565b60405180910390f35b61028d6004803603810190610288919061201b565b6110f8565b60405161029a91906122bb565b60405180910390f35b6102bd60048036038101906102b89190611de4565b611138565b6040516102ca9190612380565b60405180910390f35b6102ed60048036038101906102e89190611de4565b61120c565b6040516102fa91906123d9565b60405180910390f35b61030b611275565b60405161031891906122f8565b60405180910390f35b61033b60048036038101906103369190612048565b6112cd565b604051610348919061234a565b60405180910390f35b6103596113af565b60405161036691906122d6565b60405180910390f35b61038960048036038101906103849190611de4565b61143d565b6040516103979291906123a2565b60405180910390f35b6103a86115e5565b6040516103b591906122f8565b60405180910390f35b6103c661163d565b6040516103d391906122f8565b60405180910390f35b6103f660048036038101906103f1919061201b565b611695565b60405161040391906122bb565b60405180910390f35b6104266004803603810190610421919061201b565b6116d5565b60405161043391906122bb565b60405180910390f35b6104566004803603810190610451919061201b565b611712565b60405161046391906122bb565b60405180910390f35b61048660048036038101906104819190611e11565b611752565b604051610493919061234a565b60405180910390f35b6104b660048036038101906104b19190611de4565b61183d565b6040516104c3919061234a565b60405180910390f35b6104e660048036038101906104e19190611de4565b6119e8565b6040516104f39190612380565b60405180910390f35b600a80546105099061265b565b80601f01602080910402602001604051908101604052809291908181526020018280546105359061265b565b80156105825780601f1061055757610100808354040283529160200191610582565b820191906000526020600020905b81548152906001019060200180831161056557829003601f168201915b505050505081565b600082600a90805190602001906105a2929190611bf4565b506009859080600181540180825580915050600190039060005260206000200160009091909190916101000a81548173ffffffffffffffffffffffffffffffffffffffff021916908373ffffffffffffffffffffffffffffffffffffffff160217905550610646600a6040518060400160405280600681526020017f53656c6c65720000000000000000000000000000000000000000000000000000815250611abc565b156107ba5783600b60008773ffffffffffffffffffffffffffffffffffffffff1673ffffffffffffffffffffffffffffffffffffffff16815260200190815260200160002060000190805190602001906106a1929190611bf4565b506000859080600181540180825580915050600190039060005260206000200160009091909190916101000a81548173ffffffffffffffffffffffffffffffffffffffff021916908373ffffffffffffffffffffffffffffffffffffffff16021790555082600b60008773ffffffffffffffffffffffffffffffffffffffff1673ffffffffffffffffffffffffffffffffffffffff168152602001908152602001600020600101908051906020019061075b929190611bf4565b5084600c600084815260200190815260200160002060000160006101000a81548173ffffffffffffffffffffffffffffffffffffffff021916908373ffffffffffffffffffffffffffffffffffffffff16021790555060019050610dd5565b6107fa600a6040518060400160405280600781526020017f4361727269657200000000000000000000000000000000000000000000000000815250611abc565b156109975783600b60008773ffffffffffffffffffffffffffffffffffffffff1673ffffffffffffffffffffffffffffffffffffffff1681526020019081526020016000206000019080519060200190610855929190611bf4565b506001859080600181540180825580915050600190039060005260206000200160009091909190916101000a81548173ffffffffffffffffffffffffffffffffffffffff021916908373ffffffffffffffffffffffffffffffffffffffff16021790555082600b60008773ffffffffffffffffffffffffffffffffffffffff1673ffffffffffffffffffffffffffffffffffffffff168152602001908152602001600020600101908051906020019061090f929190611bf4565b5084600d600084815260200190815260200160002060000160006101000a81548173ffffffffffffffffffffffffffffffffffffffff021916908373ffffffffffffffffffffffffffffffffffffffff160217905550600382908060018154018082558091505060019003906000526020600020016000909190919091505560019050610dd5565b6109d7600a6040518060400160405280600481526020017f42616e6b00000000000000000000000000000000000000000000000000000000815250611abc565b15610b455783600b60008773ffffffffffffffffffffffffffffffffffffffff1673ffffffffffffffffffffffffffffffffffffffff1681526020019081526020016000206000019080519060200190610a32929190611bf4565b5082600b60008773ffffffffffffffffffffffffffffffffffffffff1673ffffffffffffffffffffffffffffffffffffffff1681526020019081526020016000206001019080519060200190610a89929190611bf4565b50600682908060018154018082558091505060019003906000526020600020016000909190919091505584600f600084815260200190815260200160002060006101000a81548173ffffffffffffffffffffffffffffffffffffffff021916908373ffffffffffffffffffffffffffffffffffffffff1602179055507fdef6ee3f776c5e8ab44ae3908dc21b26bf800f5e5479c39be5da0ac0f85dd95282604051610b349190612365565b60405180910390a160019050610dd5565b610b85600a6040518060400160405280600e81526020017f5368697070696e674167656e6379000000000000000000000000000000000000815250611abc565b15610d225783600b60008773ffffffffffffffffffffffffffffffffffffffff1673ffffffffffffffffffffffffffffffffffffffff1681526020019081526020016000206000019080519060200190610be0929190611bf4565b506002859080600181540180825580915050600190039060005260206000200160009091909190916101000a81548173ffffffffffffffffffffffffffffffffffffffff021916908373ffffffffffffffffffffffffffffffffffffffff16021790555082600b60008773ffffffffffffffffffffffffffffffffffffffff1673ffffffffffffffffffffffffffffffffffffffff1681526020019081526020016000206001019080519060200190610c9a929190611bf4565b5084600d600084815260200190815260200160002060000160006101000a81548173ffffffffffffffffffffffffffffffffffffffff021916908373ffffffffffffffffffffffffffffffffffffffff160217905550600482908060018154018082558091505060019003906000526020600020016000909190919091505560019050610dd5565b83600b60008773ffffffffffffffffffffffffffffffffffffffff1673ffffffffffffffffffffffffffffffffffffffff1681526020019081526020016000206000019080519060200190610d78929190611bf4565b5082600b60008773ffffffffffffffffffffffffffffffffffffffff1673ffffffffffffffffffffffffffffffffffffffff1681526020019081526020016000206001019080519060200190610dcf929190611bf4565b50600190505b949350505050565b600081601260008573ffffffffffffffffffffffffffffffffffffffff1673ffffffffffffffffffffffffffffffffffffffff1681526020019081526020016000209080519060200190610e32929190611bf4565b506001905092915050565b6060601260008373ffffffffffffffffffffffffffffffffffffffff1673ffffffffffffffffffffffffffffffffffffffff1681526020019081526020016000208054610e899061265b565b80601f0160208091040260200160405190810160405280929190818152602001828054610eb59061265b565b8015610f025780601f10610ed757610100808354040283529160200191610f02565b820191906000526020600020905b815481529060010190602001808311610ee557829003601f168201915b50505050509050919050565b600083600a9080519060200190610f26929190611bf4565b5084600b60008873ffffffffffffffffffffffffffffffffffffffff1673ffffffffffffffffffffffffffffffffffffffff1681526020019081526020016000206000019080519060200190610f7d929190611bf4565b5083600b60008873ffffffffffffffffffffffffffffffffffffffff1673ffffffffffffffffffffffffffffffffffffffff1681526020019081526020016000206001019080519060200190610fd4929190611bf4565b5085600e600085815260200190815260200160002060000160006101000a81548173ffffffffffffffffffffffffffffffffffffffff021916908373ffffffffffffffffffffffffffffffffffffffff16021790555060058390806001815401808255809150506001900390600052602060002001600090919091909150556001905095945050505050565b6000600d600083815260200190815260200160002060000160009054906101000a900473ffffffffffffffffffffffffffffffffffffffff169050919050565b606060088054806020026020016040519081016040528092919081815260200182805480156110ee57602002820191906000526020600020905b8154815260200190600101908083116110da575b5050505050905090565b6000600d600083815260200190815260200160002060000160009054906101000a900473ffffffffffffffffffffffffffffffffffffffff169050919050565b6060600b60008373ffffffffffffffffffffffffffffffffffffffff1673ffffffffffffffffffffffffffffffffffffffff16815260200190815260200160002060010180546111879061265b565b80601f01602080910402602001604051908101604052809291908181526020018280546111b39061265b565b80156112005780601f106111d557610100808354040283529160200191611200565b820191906000526020600020905b8154815290600101906020018083116111e357829003601f168201915b50505050509050919050565b6000601060008373ffffffffffffffffffffffffffffffffffffffff1673ffffffffffffffffffffffffffffffffffffffff16815260200190815260200160002060000160008154811061126357611262612765565b5b90600052602060002001549050919050565b606060068054806020026020016040519081016040528092919081815260200182805480156112c357602002820191906000526020600020905b8154815260200190600101908083116112af575b5050505050905090565b600081601160008573ffffffffffffffffffffffffffffffffffffffff1673ffffffffffffffffffffffffffffffffffffffff1681526020019081526020016000206000019080519060200190611325929190611bf4565b50600884908060018154018082558091505060019003906000526020600020016000909190919091505582600d600086815260200190815260200160002060000160006101000a81548173ffffffffffffffffffffffffffffffffffffffff021916908373ffffffffffffffffffffffffffffffffffffffff160217905550600190509392505050565b6060600980548060200260200160405190810160405280929190818152602001828054801561143357602002820191906000526020600020905b8160009054906101000a900473ffffffffffffffffffffffffffffffffffffffff1673ffffffffffffffffffffffffffffffffffffffff16815260200190600101908083116113e9575b5050505050905090565b606080600b60008473ffffffffffffffffffffffffffffffffffffffff1673ffffffffffffffffffffffffffffffffffffffff168152602001908152602001600020600001600b60008573ffffffffffffffffffffffffffffffffffffffff1673ffffffffffffffffffffffffffffffffffffffff1681526020019081526020016000206001018180546114d09061265b565b80601f01602080910402602001604051908101604052809291908181526020018280546114fc9061265b565b80156115495780601f1061151e57610100808354040283529160200191611549565b820191906000526020600020905b81548152906001019060200180831161152c57829003601f168201915b5050505050915080805461155c9061265b565b80601f01602080910402602001604051908101604052809291908181526020018280546115889061265b565b80156115d55780601f106115aa576101008083540402835291602001916115d5565b820191906000526020600020905b8154815290600101906020018083116115b857829003601f168201915b5050505050905091509150915091565b6060600480548060200260200160405190810160405280929190818152602001828054801561163357602002820191906000526020600020905b81548152602001906001019080831161161f575b5050505050905090565b6060600380548060200260200160405190810160405280929190818152602001828054801561168b57602002820191906000526020600020905b815481526020019060010190808311611677575b5050505050905090565b6000600c600083815260200190815260200160002060000160009054906101000a900473ffffffffffffffffffffffffffffffffffffffff169050919050565b6000600f600083815260200190815260200160002060009054906101000a900473ffffffffffffffffffffffffffffffffffffffff169050919050565b6000600e600083815260200190815260200160002060000160009054906101000a900473ffffffffffffffffffffffffffffffffffffffff169050919050565b600080600090505b82518110156117f957601060008573ffffffffffffffffffffffffffffffffffffffff1673ffffffffffffffffffffffffffffffffffffffff1681526020019081526020016000206000018382815181106117b8576117b7612765565b5b6020026020010151908060018154018082558091505060019003906000526020600020016000909190919091505580806117f1906126be565b91505061175a565b507f4f3301a42cb91589b8f7f0bfcdca552ecd0a0cf17ab77674b1d5273851e1fc05828460405161182b92919061231a565b60405180910390a16001905092915050565b6000601060008373ffffffffffffffffffffffffffffffffffffffff1673ffffffffffffffffffffffffffffffffffffffff16815260200190815260200160002060000160008154811061189457611893612765565b5b906000526020600020016000905560005b6001601060008573ffffffffffffffffffffffffffffffffffffffff1673ffffffffffffffffffffffffffffffffffffffff168152602001908152602001600020600001805490506118f79190612593565b8110156119de57601060008473ffffffffffffffffffffffffffffffffffffffff1673ffffffffffffffffffffffffffffffffffffffff16815260200190815260200160002060000160018261194d919061253d565b8154811061195e5761195d612765565b5b9060005260206000200154601060008573ffffffffffffffffffffffffffffffffffffffff1673ffffffffffffffffffffffffffffffffffffffff16815260200190815260200160002060000182815481106119bd576119bc612765565b5b906000526020600020018190555080806119d6906126be565b9150506118a5565b5060019050919050565b6060601160008373ffffffffffffffffffffffffffffffffffffffff1673ffffffffffffffffffffffffffffffffffffffff1681526020019081526020016000206000018054611a379061265b565b80601f0160208091040260200160405190810160405280929190818152602001828054611a639061265b565b8015611ab05780601f10611a8557610100808354040283529160200191611ab0565b820191906000526020600020905b815481529060010190602001808311611a9357829003601f168201915b50505050509050919050565b60008083905060008390508051828054611ad59061265b565b905014611ae757600092505050611bee565b60005b828054611af69061265b565b9050811015611be657818181518110611b1257611b11612765565b5b602001015160f81c60f81b7effffffffffffffffffffffffffffffffffffffffffffffffffffffffffffff191683828154611b4c9061265b565b8110611b5b57611b5a612765565b5b815460011615611b7a5790600052602060002090602091828204019190065b9054901a7f0100000000000000000000000000000000000000000000000000000000000000027effffffffffffffffffffffffffffffffffffffffffffffffffffffffffffff191614611bd35760009350505050611bee565b8080611bde906126be565b915050611aea565b506001925050505b92915050565b828054611c009061265b565b90600052602060002090601f016020900481019282611c225760008555611c69565b82601f10611c3b57805160ff1916838001178555611c69565b82800160010185558215611c69579182015b82811115611c68578251825591602001919060010190611c4d565b5b509050611c769190611c7a565b5090565b5b80821115611c93576000816000905550600101611c7b565b5090565b6000611caa611ca584612419565b6123f4565b90508083825260208201905082856020860282011115611ccd57611ccc6127c8565b5b60005b85811015611cfd5781611ce38882611dcf565b845260208401935060208301925050600181019050611cd0565b5050509392505050565b6000611d1a611d1584612445565b6123f4565b905082815260208101848484011115611d3657611d356127cd565b5b611d41848285612619565b509392505050565b600081359050611d58816127ed565b92915050565b600082601f830112611d7357611d726127c3565b5b8135611d83848260208601611c97565b91505092915050565b600081359050611d9b81612804565b92915050565b600082601f830112611db657611db56127c3565b5b8135611dc6848260208601611d07565b91505092915050565b600081359050611dde8161281b565b92915050565b600060208284031215611dfa57611df96127d7565b5b6000611e0884828501611d49565b91505092915050565b60008060408385031215611e2857611e276127d7565b5b6000611e3685828601611d49565b925050602083013567ffffffffffffffff811115611e5757611e566127d2565b5b611e6385828601611d5e565b9150509250929050565b60008060408385031215611e8457611e836127d7565b5b6000611e9285828601611d49565b925050602083013567ffffffffffffffff811115611eb357611eb26127d2565b5b611ebf85828601611da1565b9150509250929050565b60008060008060808587031215611ee357611ee26127d7565b5b6000611ef187828801611d49565b945050602085013567ffffffffffffffff811115611f1257611f116127d2565b5b611f1e87828801611da1565b935050604085013567ffffffffffffffff811115611f3f57611f3e6127d2565b5b611f4b87828801611da1565b9250506060611f5c87828801611d8c565b91505092959194509250565b600080600080600060a08688031215611f8457611f836127d7565b5b6000611f9288828901611d49565b955050602086013567ffffffffffffffff811115611fb357611fb26127d2565b5b611fbf88828901611da1565b945050604086013567ffffffffffffffff811115611fe057611fdf6127d2565b5b611fec88828901611da1565b9350506060611ffd88828901611d8c565b925050608061200e88828901611d49565b9150509295509295909350565b600060208284031215612031576120306127d7565b5b600061203f84828501611d8c565b91505092915050565b600080600060608486031215612061576120606127d7565b5b600061206f86828701611d8c565b935050602061208086828701611d49565b925050604084013567ffffffffffffffff8111156120a1576120a06127d2565b5b6120ad86828701611da1565b9150509250925092565b60006120c383836120ff565b60208301905092915050565b60006120db8383612246565b60208301905092915050565b60006120f3838361229d565b60208301905092915050565b612108816125c7565b82525050565b612117816125c7565b82525050565b6000612128826124a6565b61213281856124f9565b935061213d83612476565b8060005b8381101561216e57815161215588826120b7565b9750612160836124d2565b925050600181019050612141565b5085935050505092915050565b6000612186826124b1565b612190818561250a565b935061219b83612486565b8060005b838110156121cc5781516121b388826120cf565b97506121be836124df565b92505060018101905061219f565b5085935050505092915050565b60006121e4826124bc565b6121ee818561251b565b93506121f983612496565b8060005b8381101561222a57815161221188826120e7565b975061221c836124ec565b9250506001810190506121fd565b5085935050505092915050565b612240816125d9565b82525050565b61224f816125e5565b82525050565b61225e816125e5565b82525050565b600061226f826124c7565b612279818561252c565b9350612289818560208601612628565b612292816127dc565b840191505092915050565b6122a68161260f565b82525050565b6122b58161260f565b82525050565b60006020820190506122d0600083018461210e565b92915050565b600060208201905081810360008301526122f0818461211d565b905092915050565b60006020820190508181036000830152612312818461217b565b905092915050565b6000604082019050818103600083015261233481856121d9565b9050612343602083018461210e565b9392505050565b600060208201905061235f6000830184612237565b92915050565b600060208201905061237a6000830184612255565b92915050565b6000602082019050818103600083015261239a8184612264565b905092915050565b600060408201905081810360008301526123bc8185612264565b905081810360208301526123d08184612264565b90509392505050565b60006020820190506123ee60008301846122ac565b92915050565b60006123fe61240f565b905061240a828261268d565b919050565b6000604051905090565b600067ffffffffffffffff82111561243457612433612794565b5b602082029050602081019050919050565b600067ffffffffffffffff8211156124605761245f612794565b5b612469826127dc565b9050602081019050919050565b6000819050602082019050919050565b6000819050602082019050919050565b6000819050602082019050919050565b600081519050919050565b600081519050919050565b600081519050919050565b600081519050919050565b6000602082019050919050565b6000602082019050919050565b6000602082019050919050565b600082825260208201905092915050565b600082825260208201905092915050565b600082825260208201905092915050565b600082825260208201905092915050565b60006125488261260f565b91506125538361260f565b9250827fffffffffffffffffffffffffffffffffffffffffffffffffffffffffffffffff0382111561258857612587612707565b5b828201905092915050565b600061259e8261260f565b91506125a98361260f565b9250828210156125bc576125bb612707565b5b828203905092915050565b60006125d2826125ef565b9050919050565b60008115159050919050565b6000819050919050565b600073ffffffffffffffffffffffffffffffffffffffff82169050919050565b6000819050919050565b82818337600083830152505050565b60005b8381101561264657808201518184015260208101905061262b565b83811115612655576000848401525b50505050565b6000600282049050600182168061267357607f821691505b6020821081141561268757612686612736565b5b50919050565b612696826127dc565b810181811067ffffffffffffffff821117156126b5576126b4612794565b5b80604052505050565b60006126c98261260f565b91507fffffffffffffffffffffffffffffffffffffffffffffffffffffffffffffffff8214156126fc576126fb612707565b5b600182019050919050565b7f4e487b7100000000000000000000000000000000000000000000000000000000600052601160045260246000fd5b7f4e487b7100000000000000000000000000000000000000000000000000000000600052602260045260246000fd5b7f4e487b7100000000000000000000000000000000000000000000000000000000600052603260045260246000fd5b7f4e487b7100000000000000000000000000000000000000000000000000000000600052604160045260246000fd5b600080fd5b600080fd5b600080fd5b600080fd5b600080fd5b6000601f19601f8301169050919050565b6127f6816125c7565b811461280157600080fd5b50565b61280d816125e5565b811461281857600080fd5b50565b6128248161260f565b811461282f57600080fd5b5056fea2646970667358221220b34a85f6d065726038c30ef1b8903d9e3909a685d99842d37ffe084db772ccc964736f6c63430008060033",
  "immutableReferences": {},
  "source": "// SPDX-License-Identifier: GPL-3.0\npragma solidity >=0.4.16 <0.9.0;\n// pragma solidity 0.8.6;\n\n// pragma solidity ^0.4.20;\n// import \"./Escrow.sol\";\n\n/// @title User Registration\n/// @author Jisa\n/// @notice Use this contract for saving and retreiving registered users\n\ncontract Registration {\n    address[] sellerList;\n    address[] carrierList;\n    address[] AgencyList;\n    bytes32[] carriers;\n     bytes32[] Agencies;\n    bytes32[] consignee;\n    bytes32[] bank;\n    address escrow;\n    bytes32[] forwardingAgentList;\n    address[] test;\n    // constructor(address escrow_address)public{\n    //     escrow = escrow_address;\n    // }\n    string public UType;\n    // to save userHash and usertype\n    struct User{\n        string userHash;\n        string uType;\n    }\n    mapping( address => User) userTable;\n    // to save seller address with a name\n    struct UserSeller{\n        address userAdd;\n    }\n    mapping( bytes32 => UserSeller) userSellerTable;\n\n\n    // to save carrier address with a name\n    struct UserS{\n        address userH;\n    }\n    mapping( bytes32 => UserS) userSTable;\n\n    //to save consignee address with a name\n    struct UserConsignee{\n        address userWallet;\n    }\n    mapping( bytes32 => UserConsignee) userConsigneeTable;\n    //to save bank address with a name\n    mapping( bytes32 => address) bankTable;\n\n    event LogBank(bytes32 bank);\n/// @notice Function for registering stakeholders\n\n    function saveUserDetailsToBC(address metamaskAdd,string memory hash,string memory uType,bytes32 cus) public  returns(bool) {\n        UType = uType;\n        // Escrow instance = Escrow(escrow);\n        test.push(metamaskAdd);\n        if (stringsEqual(UType, \"Seller\")) {\n            userTable[metamaskAdd].userHash = hash;\n            sellerList.push(metamaskAdd);\n            userTable[metamaskAdd].uType = uType;\n            userSellerTable[cus].userAdd = metamaskAdd;\n            return true;\n\n        } else if (stringsEqual(UType, \"Carrier\")) {\n            userTable[metamaskAdd].userHash = hash;\n            carrierList.push(metamaskAdd);\n            userTable[metamaskAdd].uType = uType;\n            userSTable[cus].userH = metamaskAdd;\n            carriers.push(cus);\n            return true;\n\n        } else if (stringsEqual(UType, \"Bank\")) {\n            userTable[metamaskAdd].userHash = hash;\n            userTable[metamaskAdd].uType = uType;\n            bank.push(cus);\n            bankTable[cus] = metamaskAdd;\n            // instance.createWallet(metamaskAdd,cus);\n            emit LogBank(cus);\n            return true;\n            } else if (stringsEqual(UType, \"ShippingAgency\")) {\n            userTable[metamaskAdd].userHash = hash;\n            AgencyList.push(metamaskAdd);\n            userTable[metamaskAdd].uType = uType;\n            userSTable[cus].userH = metamaskAdd;\n            Agencies.push(cus);\n            return true;\n        }\n        else {\n            userTable[metamaskAdd].userHash = hash;\n            userTable[metamaskAdd].uType = uType;\n            return true;\n        }\n    }\n\n        function gettestAd() public view returns(address[] memory) {\n        return (test);\n    }\n    function saveUserDetailsToBCConsignee(address metamaskAdd,string memory hash,string memory uType,bytes32 cus,address bankAddress) public returns (bool)\n    {\n            UType = uType;\n            userTable[metamaskAdd].userHash = hash;\n            userTable[metamaskAdd].uType = uType;\n            userConsigneeTable[cus].userWallet = metamaskAdd;\n            consignee.push(cus);\n            // Escrow instance = Escrow(escrow);\n            // instance.addOwner(bankAddress,metamaskAdd);\n            return true;\n    } \n/// @notice Function for fetching user_hash and user_type\n    function getUserHashType(address metamaskAdd) public view returns(string memory,string memory)\n    {\n        return (userTable[metamaskAdd].userHash,userTable[metamaskAdd].uType);\n    }\n    function getUserType(address metamaskAdd) public view returns(string memory) {\n        return (userTable[metamaskAdd].uType);\n    }\n /// @notice Function  to return address for a username\n    function retselleradd(bytes32 sellerName) public view returns(address){\n          return (userSellerTable[sellerName].userAdd);\n    }\n    function retcarrieradd(bytes32 carrierName) public view returns(address){\n          return (userSTable[carrierName].userH);\n    }\n    function retconsigneeadd(bytes32 consigneeName) public view returns(address){\n          return (userConsigneeTable[consigneeName].userWallet);\n    }\n\n    function retbankadd(bytes32 bankName) public view returns(address){\n          return (bankTable[bankName]);\n    }\n    function retbanks() public view returns(bytes32[] memory){\n          return (bank);\n    }\n\n    /// @dev used to return the list of registered carriers\n    /// @return bytes32[] array\n    function retCarriers() public view returns(bytes32[] memory){\n          return (carriers);\n    }\n\n/// @notice Function for string comparison\n    function stringsEqual(string storage _a, string memory _b) internal view returns (bool) {\n\t\tbytes storage a = bytes(_a);\n\t\tbytes memory b = bytes(_b);\n\t\tif (a.length != b.length){\n\t\t\treturn false;\n        }\n        for (uint i = 0; i < a.length; i ++){\n\t\t    if (a[i] != b[i]){\n\t\t\t\treturn false;\n            }\n        }\n\t\treturn true;\n    }\n//ERC721 TOKEN CODE\n    struct Tokens{\n        uint256[] ERC721Tokens;\n    }\n\n    mapping(address => Tokens) TokenData;\n\n    event Tok(uint256[] t, address ad);\n\n    function saveTokenData(address shipperAddress, uint256[] memory token) public returns(bool) {\n        for(uint k = 0;k<token.length;k++){\n            TokenData[shipperAddress].ERC721Tokens.push(token[k]);\n        }\n        emit Tok(token, shipperAddress);\n        return true;\n    }\n\n    function popToken(address user) public view returns(uint256){\n        return TokenData[user].ERC721Tokens[0];\n    }\n\n    function deleteToken(address shipperAddress) public returns(bool){\n        delete TokenData[shipperAddress].ERC721Tokens[0];\n            for (uint k = 0; k<TokenData[shipperAddress].ERC721Tokens.length-1;k++){\n                TokenData[shipperAddress].ERC721Tokens[k] = TokenData[shipperAddress].ERC721Tokens[k+1];\n            }\n        return true;\n    }\n//ERC721 TOKEN CODE END\n\n//code added by MITHUN\n//Forwarding Agent\nstruct agentM{\n    string hashIPFS;\n}\nmapping(address =>agentM) agentMap;\n\n    /// @dev registering a agent by a shipping agency\n    /// @param shippingAgencyAdd metamask wallet address of the shipping agency\n    /// @param dataHash hash containing agents data\n    /// @return boolean\n\nfunction updateAgent(bytes32 agentName,address shippingAgencyAdd, string memory dataHash) public returns(bool){\n        agentMap[shippingAgencyAdd].hashIPFS = dataHash;\n        forwardingAgentList.push(agentName);\n        userSTable[agentName].userH = shippingAgencyAdd;\n        return true;\n}\n\n    /// @dev returning the agent linked to shipping agency\n    /// @param shippingAgencyAdd metamask wallet address of the shipping agency\n    /// @return bytes IPFS hash containing agents data\n    function getAgent(address shippingAgencyAdd) public view returns(string memory) {\n        return (agentMap[shippingAgencyAdd].hashIPFS);\n    }\n    /// @dev used to return the list of registered Forwarding Agent\n    /// @return bytes32[] array\n    function retforwardingAgentList() public view returns(bytes32[] memory){\n          return (forwardingAgentList);\n    }\n    /// @dev used to return the list of registered shipping Agencies\n    /// @return bytes32[] array\n    function retAgencies() public view returns(bytes32[] memory){\n          return (Agencies);\n    }\n    /// @dev used to return address based on userName\n    /// @return address\n    function retagencyadd(bytes32 agencyName) public view returns(address){\n          return (userSTable[agencyName].userH);\n    }\n    mapping(address => string) role;\n    function saveRole(address _user, string memory hash) public returns(bool){\n        role[_user] = hash;\n        return true;\n    }\n\n    function returnRole(address _user) public view returns(string memory){\n        return(role[_user]);\n    }\n}\n",
  "sourcePath": "/home/kottackal/Desktop/Data Analytics Jisa/Analytics App-LEI/contracts/Registration.sol",
  "compiler": {
    "name": "solc",
    "version": "0.8.6+commit.11564f7e.Emscripten.clang"
  },
  "schemaVersion": "3.4.3",
  "updatedAt": "2023-08-01T13:53:07.089Z",
  "networkType": "ethereum",
  "devdoc": {
    "author": "Jisa",
    "kind": "dev",
    "methods": {
      "getAgent(address)": {
        "details": "returning the agent linked to shipping agency",
        "params": {
          "shippingAgencyAdd": "metamask wallet address of the shipping agency"
        },
        "returns": {
          "_0": "bytes IPFS hash containing agents data"
        }
      },
      "retAgencies()": {
        "details": "used to return the list of registered shipping Agencies",
        "returns": {
          "_0": "bytes32[] array"
        }
      },
      "retCarriers()": {
        "details": "used to return the list of registered carriers",
        "returns": {
          "_0": "bytes32[] array"
        }
      },
      "retagencyadd(bytes32)": {
        "details": "used to return address based on userName",
        "returns": {
          "_0": "address"
        }
      },
      "retforwardingAgentList()": {
        "details": "used to return the list of registered Forwarding Agent",
        "returns": {
          "_0": "bytes32[] array"
        }
      },
      "updateAgent(bytes32,address,string)": {
        "details": "registering a agent by a shipping agency",
        "params": {
          "dataHash": "hash containing agents data",
          "shippingAgencyAdd": "metamask wallet address of the shipping agency"
        },
        "returns": {
          "_0": "boolean"
        }
      }
    },
    "title": "User Registration",
    "version": 1
  },
  "userdoc": {
    "kind": "user",
    "methods": {
      "getUserHashType(address)": {
        "notice": "Function for fetching user_hash and user_type"
      },
      "retselleradd(bytes32)": {
        "notice": "Function  to return address for a username"
      },
      "saveUserDetailsToBC(address,string,string,bytes32)": {
        "notice": "Function for registering stakeholders"
      }
    },
    "notice": "Use this contract for saving and retreiving registered users",
    "version": 1
  }
}